{
  "abi": [
    {
      "inputs": [
        {
          "internalType": "address",
          "name": "_owner",
          "type": "address"
        },
        {
          "internalType": "uint256",
          "name": "_lockupDuration",
          "type": "uint256"
        }
      ],
      "stateMutability": "nonpayable",
      "type": "constructor"
    },
    {
      "inputs": [],
      "name": "LockNotExpired",
      "type": "error"
    },
    {
      "inputs": [],
      "name": "OnlyOwnerAllowed",
      "type": "error"
    },
    {
      "inputs": [],
      "name": "lockupDuration",
      "outputs": [
        {
          "internalType": "uint256",
          "name": "",
          "type": "uint256"
        }
      ],
      "stateMutability": "view",
      "type": "function"
    },
    {
      "inputs": [],
      "name": "owner",
      "outputs": [
        {
          "internalType": "address",
          "name": "",
          "type": "address"
        }
      ],
      "stateMutability": "view",
      "type": "function"
    },
    {
      "inputs": [],
      "name": "startTime",
      "outputs": [
        {
          "internalType": "uint256",
          "name": "",
          "type": "uint256"
        }
      ],
      "stateMutability": "view",
      "type": "function"
    },
    {
      "inputs": [
        {
          "internalType": "address",
          "name": "_owner",
          "type": "address"
        }
      ],
      "name": "switchOwner",
      "outputs": [],
      "stateMutability": "nonpayable",
      "type": "function"
    },
    {
      "inputs": [
        {
          "internalType": "uint256",
          "name": "amt",
          "type": "uint256"
        }
      ],
      "name": "withdraw",
      "outputs": [],
      "stateMutability": "nonpayable",
      "type": "function"
    },
    {
      "stateMutability": "payable",
      "type": "receive"
    }
  ],
  "bytecode": {
    "object": "0x60c060405234801561001057600080fd5b506040516103da3803806103da83398101604081905261002f9161005c565b600080546001600160a01b0319166001600160a01b0393909316929092179091554260805260a052610096565b6000806040838503121561006f57600080fd5b82516001600160a01b038116811461008657600080fd5b6020939093015192949293505050565b60805160a0516103136100c760003960008181606c015261017f01526000818160f501526101a001526103136000f3fe60806040526004361061004e5760003560e01c80631ada70a81461005a5780632e1a7d4d146100a1578063395d7deb146100c357806378e97925146100e35780638da5cb5b1461011757600080fd5b3661005557005b600080fd5b34801561006657600080fd5b5061008e7f000000000000000000000000000000000000000000000000000000000000000081565b6040519081526020015b60405180910390f35b3480156100ad57600080fd5b506100c16100bc36600461026d565b61014f565b005b3480156100cf57600080fd5b506100c16100de366004610286565b610220565b3480156100ef57600080fd5b5061008e7f000000000000000000000000000000000000000000000000000000000000000081565b34801561012357600080fd5b50600054610137906001600160a01b031681565b6040516001600160a01b039091168152602001610098565b6000546001600160a01b0316331461017a57604051630e2f7eff60e31b815260040160405180910390fd5b6101c47f00000000000000000000000000000000000000000000000000000000000000007f00000000000000000000000000000000000000000000000000000000000000006102b6565b42116101e35760405163342ad40160e11b815260040160405180910390fd5b600080546040516001600160a01b039091169183156108fc02918491818181858888f1935050505015801561021c573d6000803e3d6000fd5b5050565b6000546001600160a01b0316331461024b57604051630e2f7eff60e31b815260040160405180910390fd5b600080546001600160a01b0319166001600160a01b0392909216919091179055565b60006020828403121561027f57600080fd5b5035919050565b60006020828403121561029857600080fd5b81356001600160a01b03811681146102af57600080fd5b9392505050565b808201808211156102d757634e487b7160e01b600052601160045260246000fd5b9291505056fea264697066735822122002adec22e1334f77d5c1137a66b962134614998985127f9146fecc260d3faf2964736f6c63430008150033",
    "linkReferences": {}
  },
  "methodIdentifiers": {
    "lockupDuration()": "1ada70a8",
    "owner()": "8da5cb5b",
    "startTime()": "78e97925",
    "switchOwner(address)": "395d7deb",
    "withdraw(uint256)": "2e1a7d4d"
  },
  "id": 0
}